:1000000002000375B00075900075A0FF7580FF7544
:10001000321C75332375342711A3788011C79002E1
:10002000001182788B11C7C2B3D2B3E5A0F53011AD
:100030008F1136020023E5309534500FE5309533AB
:10004000500CE5309532400902005402006A02006B
:1000500060020074D2B4C2B1D2B7900218117E22ED
:10006000D2B4C2B1900211117E22C2B4D2B19002B8
:100070000A117E22C2B4C2B190021F117E2278C042
:1000800011C7E493F8600711BC11D2A380F4227F5A
:100090000AE5308FF0842430F811BCE5F02430F804
:1000A00011BC22783811C7780E11C7780111C774B6
:1000B0000611C7788011C7743C11C7228890D2B04E
:1000C000D2B211D2C2B2228890C2B0D2B211D2C280
:0B00D000B222780A79FFD9FED8FA228C
:1002000054656D702E2843293A0044414E474552AB
:1002100000484947482020004E4F524D414C004C69
:060220004F5720202000D2
:00000001FF
